{
  "_format": "hh-sol-artifact-1",
  "contractName": "HelloSolidity",
  "sourceName": "contracts/HelloSolidity.sol",
  "abi": [
    {
      "inputs": [],
      "stateMutability": "nonpayable",
      "type": "constructor"
    },
    {
      "inputs": [],
      "name": "printGreeting",
      "outputs": [
        {
          "internalType": "string",
          "name": "",
          "type": "string"
        }
      ],
      "stateMutability": "view",
      "type": "function"
    },
    {
      "inputs": [
        {
          "internalType": "string",
          "name": "_greeting",
          "type": "string"
        }
      ],
      "name": "setGreeting",
      "outputs": [],
      "stateMutability": "nonpayable",
      "type": "function"
    }
  ],
  "bytecode": "0x608060405234801561001057600080fd5b5060408051808201909152600d8082526c2432b6363796102bb7b936321760991b60209092019182526100459160009161004b565b5061011f565b828054610057906100e4565b90600052602060002090601f01602090048101928261007957600085556100bf565b82601f1061009257805160ff19168380011785556100bf565b828001600101855582156100bf579182015b828111156100bf5782518255916020019190600101906100a4565b506100cb9291506100cf565b5090565b5b808211156100cb57600081556001016100d0565b600181811c908216806100f857607f821691505b6020821081141561011957634e487b7160e01b600052602260045260246000fd5b50919050565b6103ab8061012e6000396000f3fe608060405234801561001057600080fd5b50600436106100365760003560e01c806395dd3f2c1461003b578063a413686214610059575b600080fd5b61004361006e565b604051610050919061027f565b60405180910390f35b61006c6100673660046101b0565b610100565b005b60606000805461007d906102f2565b80601f01602080910402602001604051908101604052809291908181526020018280546100a9906102f2565b80156100f65780601f106100cb576101008083540402835291602001916100f6565b820191906000526020600020905b8154815290600101906020018083116100d957829003601f168201915b5050505050905090565b8051610113906000906020840190610117565b5050565b828054610123906102f2565b90600052602060002090601f016020900481019282610145576000855561018b565b82601f1061015e57805160ff191683800117855561018b565b8280016001018555821561018b579182015b8281111561018b578251825591602001919060010190610170565b5061019792915061019b565b5090565b5b80821115610197576000815560010161019c565b6000602082840312156101c257600080fd5b813567ffffffffffffffff808211156101da57600080fd5b818401915084601f8301126101ee57600080fd5b81358181111561020057610200610346565b604051601f82017fffffffffffffffffffffffffffffffffffffffffffffffffffffffffffffffe0908116603f0116810190838211818310171561024657610246610346565b8160405282815287602084870101111561025f57600080fd5b826020860160208301376000928101602001929092525095945050505050565b600060208083528351808285015260005b818110156102ac57858101830151858201604001528201610290565b818111156102be576000604083870101525b50601f017fffffffffffffffffffffffffffffffffffffffffffffffffffffffffffffffe016929092016040019392505050565b600181811c9082168061030657607f821691505b60208210811415610340577f4e487b7100000000000000000000000000000000000000000000000000000000600052602260045260246000fd5b50919050565b7f4e487b7100000000000000000000000000000000000000000000000000000000600052604160045260246000fdfea2646970667358221220b284c84919058761ce8d022b954cbb8e5fcdb633e4a69122fc3ceca192f818fe64736f6c63430008060033",
  "linkReferences": {},
  "deployedLinkReferences": {}
}